{
  "_format": "hh-sol-artifact-1",
  "contractName": "DomainIntelligence",
  "sourceName": "contracts/DomainIntelligence.sol",
  "abi": [
    {
      "inputs": [],
      "stateMutability": "nonpayable",
      "type": "constructor"
    },
    {
      "anonymous": false,
      "inputs": [
        {
          "indexed": true,
          "internalType": "string",
          "name": "domain",
          "type": "string"
        },
        {
          "indexed": false,
          "internalType": "address",
          "name": "rater",
          "type": "address"
        },
        {
          "indexed": false,
          "internalType": "uint256",
          "name": "rating",
          "type": "uint256"
        }
      ],
      "name": "CommunityRated",
      "type": "event"
    },
    {
      "anonymous": false,
      "inputs": [
        {
          "indexed": true,
          "internalType": "string",
          "name": "domain",
          "type": "string"
        },
        {
          "indexed": false,
          "internalType": "uint256",
          "name": "aiScore",
          "type": "uint256"
        },
        {
          "indexed": false,
          "internalType": "uint256",
          "name": "marketScore",
          "type": "uint256"
        },
        {
          "indexed": false,
          "internalType": "address",
          "name": "scorer",
          "type": "address"
        }
      ],
      "name": "DomainScored",
      "type": "event"
    },
    {
      "anonymous": false,
      "inputs": [
        {
          "indexed": false,
          "internalType": "address",
          "name": "user",
          "type": "address"
        },
        {
          "indexed": false,
          "internalType": "uint256",
          "name": "newScore",
          "type": "uint256"
        }
      ],
      "name": "ReputationUpdated",
      "type": "event"
    },
    {
      "inputs": [
        {
          "internalType": "address",
          "name": "scorer",
          "type": "address"
        }
      ],
      "name": "addAuthorizedScorer",
      "outputs": [],
      "stateMutability": "nonpayable",
      "type": "function"
    },
    {
      "inputs": [
        {
          "internalType": "string",
          "name": "domain",
          "type": "string"
        },
        {
          "internalType": "uint256",
          "name": "rating",
          "type": "uint256"
        },
        {
          "internalType": "string",
          "name": "comment",
          "type": "string"
        }
      ],
      "name": "addCommunityRating",
      "outputs": [],
      "stateMutability": "nonpayable",
      "type": "function"
    },
    {
      "inputs": [
        {
          "internalType": "address",
          "name": "",
          "type": "address"
        }
      ],
      "name": "authorizedScorers",
      "outputs": [
        {
          "internalType": "bool",
          "name": "",
          "type": "bool"
        }
      ],
      "stateMutability": "view",
      "type": "function"
    },
    {
      "inputs": [
        {
          "internalType": "address",
          "name": "user",
          "type": "address"
        },
        {
          "internalType": "uint256",
          "name": "score",
          "type": "uint256"
        }
      ],
      "name": "bootstrapUserReputation",
      "outputs": [],
      "stateMutability": "nonpayable",
      "type": "function"
    },
    {
      "inputs": [
        {
          "internalType": "string",
          "name": "",
          "type": "string"
        },
        {
          "internalType": "uint256",
          "name": "",
          "type": "uint256"
        }
      ],
      "name": "communityRatings",
      "outputs": [
        {
          "internalType": "address",
          "name": "rater",
          "type": "address"
        },
        {
          "internalType": "uint256",
          "name": "rating",
          "type": "uint256"
        },
        {
          "internalType": "string",
          "name": "comment",
          "type": "string"
        },
        {
          "internalType": "uint256",
          "name": "timestamp",
          "type": "uint256"
        }
      ],
      "stateMutability": "view",
      "type": "function"
    },
    {
      "inputs": [
        {
          "internalType": "string",
          "name": "",
          "type": "string"
        }
      ],
      "name": "domainScores",
      "outputs": [
        {
          "internalType": "string",
          "name": "domain",
          "type": "string"
        },
        {
          "internalType": "uint256",
          "name": "aiScore",
          "type": "uint256"
        },
        {
          "internalType": "uint256",
          "name": "marketScore",
          "type": "uint256"
        },
        {
          "internalType": "uint256",
          "name": "timestamp",
          "type": "uint256"
        },
        {
          "internalType": "address",
          "name": "scorer",
          "type": "address"
        },
        {
          "internalType": "bool",
          "name": "verified",
          "type": "bool"
        }
      ],
      "stateMutability": "view",
      "type": "function"
    },
    {
      "inputs": [
        {
          "internalType": "string",
          "name": "domain",
          "type": "string"
        },
        {
          "internalType": "uint256",
          "name": "index",
          "type": "uint256"
        }
      ],
      "name": "getCommunityRating",
      "outputs": [
        {
          "components": [
            {
              "internalType": "address",
              "name": "rater",
              "type": "address"
            },
            {
              "internalType": "uint256",
              "name": "rating",
              "type": "uint256"
            },
            {
              "internalType": "string",
              "name": "comment",
              "type": "string"
            },
            {
              "internalType": "uint256",
              "name": "timestamp",
              "type": "uint256"
            }
          ],
          "internalType": "struct DomainIntelligence.CommunityRating",
          "name": "",
          "type": "tuple"
        }
      ],
      "stateMutability": "view",
      "type": "function"
    },
    {
      "inputs": [
        {
          "internalType": "string",
          "name": "domain",
          "type": "string"
        }
      ],
      "name": "getCommunityRatingsCount",
      "outputs": [
        {
          "internalType": "uint256",
          "name": "",
          "type": "uint256"
        }
      ],
      "stateMutability": "view",
      "type": "function"
    },
    {
      "inputs": [
        {
          "internalType": "string",
          "name": "domain",
          "type": "string"
        }
      ],
      "name": "getDomainScore",
      "outputs": [
        {
          "components": [
            {
              "internalType": "string",
              "name": "domain",
              "type": "string"
            },
            {
              "internalType": "uint256",
              "name": "aiScore",
              "type": "uint256"
            },
            {
              "internalType": "uint256",
              "name": "marketScore",
              "type": "uint256"
            },
            {
              "internalType": "uint256",
              "name": "timestamp",
              "type": "uint256"
            },
            {
              "internalType": "address",
              "name": "scorer",
              "type": "address"
            },
            {
              "internalType": "bool",
              "name": "verified",
              "type": "bool"
            }
          ],
          "internalType": "struct DomainIntelligence.DomainScore",
          "name": "",
          "type": "tuple"
        }
      ],
      "stateMutability": "view",
      "type": "function"
    },
    {
      "inputs": [],
      "name": "owner",
      "outputs": [
        {
          "internalType": "address",
          "name": "",
          "type": "address"
        }
      ],
      "stateMutability": "view",
      "type": "function"
    },
    {
      "inputs": [
        {
          "internalType": "address",
          "name": "scorer",
          "type": "address"
        }
      ],
      "name": "removeAuthorizedScorer",
      "outputs": [],
      "stateMutability": "nonpayable",
      "type": "function"
    },
    {
      "inputs": [
        {
          "internalType": "string",
          "name": "domain",
          "type": "string"
        },
        {
          "internalType": "uint256",
          "name": "aiScore",
          "type": "uint256"
        },
        {
          "internalType": "uint256",
          "name": "marketScore",
          "type": "uint256"
        }
      ],
      "name": "scoreDomain",
      "outputs": [],
      "stateMutability": "nonpayable",
      "type": "function"
    },
    {
      "inputs": [
        {
          "internalType": "address",
          "name": "newOwner",
          "type": "address"
        }
      ],
      "name": "transferOwnership",
      "outputs": [],
      "stateMutability": "nonpayable",
      "type": "function"
    },
    {
      "inputs": [
        {
          "internalType": "address",
          "name": "",
          "type": "address"
        }
      ],
      "name": "userReputationScores",
      "outputs": [
        {
          "internalType": "uint256",
          "name": "",
          "type": "uint256"
        }
      ],
      "stateMutability": "view",
      "type": "function"
    }
  ],
  "bytecode": "0x608060405234801561001057600080fd5b50336000806101000a81548173ffffffffffffffffffffffffffffffffffffffff021916908373ffffffffffffffffffffffffffffffffffffffff1602179055506001600360003373ffffffffffffffffffffffffffffffffffffffff1673ffffffffffffffffffffffffffffffffffffffff16815260200190815260200160002060006101000a81548160ff02191690831515021790555061212c806100b86000396000f3fe608060405234801561001057600080fd5b50600436106100ea5760003560e01c8063923edd041161008c578063f2fde38b11610066578063f2fde38b14610272578063f4c1c8931461028e578063f5ebef48146102aa578063fcccd429146102da576100ea565b8063923edd04146101f15780639d40d7931461020d578063a39263ea1461023d576100ea565b80637fc91871116100c85780637fc918711461016b5780638da5cb5b146101875780638dbbcf5c146101a557806391503865146101c1576100ea565b80632120241d146100ef578063349b39ca1461011f57806345b8f0101461013b575b600080fd5b610109600480360381019061010491906113db565b61030d565b60405161011691906115a1565b60405180910390f35b610139600480360381019061013491906115ef565b610466565b005b610155600480360381019061015091906113db565b61054f565b604051610162919061162b565b60405180910390f35b61018560048036038101906101809190611672565b61057a565b005b61018f6107af565b60405161019c91906116f0565b60405180910390f35b6101bf60048036038101906101ba919061170b565b6107d3565b005b6101db60048036038101906101d691906115ef565b6108e2565b6040516101e8919061162b565b60405180910390f35b61020b600480360381019061020691906115ef565b6108fa565b005b6102276004803603810190610222919061174b565b6109e3565b604051610234919061180a565b60405180910390f35b610257600480360381019061025291906113db565b610b9b565b60405161026996959493929190611885565b60405180910390f35b61028c600480360381019061028791906115ef565b610ca2565b005b6102a860048036038101906102a391906118ed565b610de2565b005b6102c460048036038101906102bf91906115ef565b6110ca565b6040516102d19190611978565b60405180910390f35b6102f460048036038101906102ef919061174b565b6110ea565b6040516103049493929190611993565b60405180910390f35b6103156111f5565b6001826040516103259190611a1b565b90815260200160405180910390206040518060c001604052908160008201805461034e90611a61565b80601f016020809104026020016040519081016040528092919081815260200182805461037a90611a61565b80156103c75780601f1061039c576101008083540402835291602001916103c7565b820191906000526020600020905b8154815290600101906020018083116103aa57829003601f168201915b505050505081526020016001820154815260200160028201548152602001600382015481526020016004820160009054906101000a900473ffffffffffffffffffffffffffffffffffffffff1673ffffffffffffffffffffffffffffffffffffffff1673ffffffffffffffffffffffffffffffffffffffff1681526020016004820160149054906101000a900460ff1615151515815250509050919050565b60008054906101000a900473ffffffffffffffffffffffffffffffffffffffff1673ffffffffffffffffffffffffffffffffffffffff163373ffffffffffffffffffffffffffffffffffffffff16146104f4576040517f08c379a00000000000000000000000000000000000000000000000000000000081526004016104eb90611ade565b60405180910390fd5b6001600360008373ffffffffffffffffffffffffffffffffffffffff1673ffffffffffffffffffffffffffffffffffffffff16815260200190815260200160002060006101000a81548160ff02191690831515021790555050565b60006002826040516105619190611a1b565b9081526020016040518091039020805490509050919050565b600360003373ffffffffffffffffffffffffffffffffffffffff1673ffffffffffffffffffffffffffffffffffffffff16815260200190815260200160002060009054906101000a900460ff16610606576040517f08c379a00000000000000000000000000000000000000000000000000000000081526004016105fd90611b4a565b60405180910390fd5b60648211158015610618575060648111155b610657576040517f08c379a000000000000000000000000000000000000000000000000000000000815260040161064e90611bb6565b60405180910390fd5b6040518060c001604052808481526020018381526020018281526020014281526020013373ffffffffffffffffffffffffffffffffffffffff168152602001600115158152506001846040516106ad9190611a1b565b908152602001604051809103902060008201518160000190816106d09190611d82565b5060208201518160010155604082015181600201556060820151816003015560808201518160040160006101000a81548173ffffffffffffffffffffffffffffffffffffffff021916908373ffffffffffffffffffffffffffffffffffffffff16021790555060a08201518160040160146101000a81548160ff021916908315150217905550905050826040516107679190611a1b565b60405180910390207fc2102d7651139d37047315279e1cedd2657c682a58311060618b28b1453e83928383336040516107a293929190611e54565b60405180910390a2505050565b60008054906101000a900473ffffffffffffffffffffffffffffffffffffffff1681565b60008054906101000a900473ffffffffffffffffffffffffffffffffffffffff1673ffffffffffffffffffffffffffffffffffffffff163373ffffffffffffffffffffffffffffffffffffffff1614610861576040517f08c379a000000000000000000000000000000000000000000000000000000000815260040161085890611ade565b60405180910390fd5b80600460008473ffffffffffffffffffffffffffffffffffffffff1673ffffffffffffffffffffffffffffffffffffffff168152602001908152602001600020819055507ffc577563f1b9a0461e24abef1e1fcc0d33d3d881f20b5df6dda59de4aae2c82182826040516108d6929190611e8b565b60405180910390a15050565b60046020528060005260406000206000915090505481565b60008054906101000a900473ffffffffffffffffffffffffffffffffffffffff1673ffffffffffffffffffffffffffffffffffffffff163373ffffffffffffffffffffffffffffffffffffffff1614610988576040517f08c379a000000000000000000000000000000000000000000000000000000000815260040161097f90611ade565b60405180910390fd5b6000600360008373ffffffffffffffffffffffffffffffffffffffff1673ffffffffffffffffffffffffffffffffffffffff16815260200190815260200160002060006101000a81548160ff02191690831515021790555050565b6109eb611243565b6002836040516109fb9190611a1b565b9081526020016040518091039020805490508210610a4e576040517f08c379a0000000000000000000000000000000000000000000000000000000008152600401610a4590611f00565b60405180910390fd5b600283604051610a5e9190611a1b565b90815260200160405180910390208281548110610a7e57610a7d611f20565b5b90600052602060002090600402016040518060800160405290816000820160009054906101000a900473ffffffffffffffffffffffffffffffffffffffff1673ffffffffffffffffffffffffffffffffffffffff1673ffffffffffffffffffffffffffffffffffffffff16815260200160018201548152602001600282018054610b0790611a61565b80601f0160208091040260200160405190810160405280929190818152602001828054610b3390611a61565b8015610b805780601f10610b5557610100808354040283529160200191610b80565b820191906000526020600020905b815481529060010190602001808311610b6357829003601f168201915b50505050508152602001600382015481525050905092915050565b600181805160208101820180518482526020830160208501208183528095505050505050600091509050806000018054610bd490611a61565b80601f0160208091040260200160405190810160405280929190818152602001828054610c0090611a61565b8015610c4d5780601f10610c2257610100808354040283529160200191610c4d565b820191906000526020600020905b815481529060010190602001808311610c3057829003601f168201915b5050505050908060010154908060020154908060030154908060040160009054906101000a900473ffffffffffffffffffffffffffffffffffffffff16908060040160149054906101000a900460ff16905086565b60008054906101000a900473ffffffffffffffffffffffffffffffffffffffff1673ffffffffffffffffffffffffffffffffffffffff163373ffffffffffffffffffffffffffffffffffffffff1614610d30576040517f08c379a0000000000000000000000000000000000000000000000000000000008152600401610d2790611ade565b60405180910390fd5b600073ffffffffffffffffffffffffffffffffffffffff168173ffffffffffffffffffffffffffffffffffffffff1603610d9f576040517f08c379a0000000000000000000000000000000000000000000000000000000008152600401610d9690611f9b565b60405180910390fd5b806000806101000a81548173ffffffffffffffffffffffffffffffffffffffff021916908373ffffffffffffffffffffffffffffffffffffffff16021790555050565b60018210158015610df4575060058211155b610e33576040517f08c379a0000000000000000000000000000000000000000000000000000000008152600401610e2a90612007565b60405180910390fd5b600a600460003373ffffffffffffffffffffffffffffffffffffffff1673ffffffffffffffffffffffffffffffffffffffff168152602001908152602001600020541015610eb6576040517f08c379a0000000000000000000000000000000000000000000000000000000008152600401610ead90612073565b60405180910390fd5b600283604051610ec69190611a1b565b908152602001604051809103902060405180608001604052803373ffffffffffffffffffffffffffffffffffffffff16815260200184815260200183815260200142815250908060018154018082558091505060019003906000526020600020906004020160009091909190915060008201518160000160006101000a81548173ffffffffffffffffffffffffffffffffffffffff021916908373ffffffffffffffffffffffffffffffffffffffff160217905550602082015181600101556040820151816002019081610f9a9190611d82565b506060820151816003015550506001600460003373ffffffffffffffffffffffffffffffffffffffff1673ffffffffffffffffffffffffffffffffffffffff1681526020019081526020016000206000828254610ff791906120c2565b925050819055508260405161100c9190611a1b565b60405180910390207fb7ce90db20594ead598fcfc3b9924f496ce48ba7c16a082d7dfd662bd63dbb3d3384604051611045929190611e8b565b60405180910390a27ffc577563f1b9a0461e24abef1e1fcc0d33d3d881f20b5df6dda59de4aae2c82133600460003373ffffffffffffffffffffffffffffffffffffffff1673ffffffffffffffffffffffffffffffffffffffff168152602001908152602001600020546040516110bd929190611e8b565b60405180910390a1505050565b60036020528060005260406000206000915054906101000a900460ff1681565b600282805160208101820180518482526020830160208501208183528095505050505050818154811061111c57600080fd5b9060005260206000209060040201600091509150508060000160009054906101000a900473ffffffffffffffffffffffffffffffffffffffff169080600101549080600201805461116c90611a61565b80601f016020809104026020016040519081016040528092919081815260200182805461119890611a61565b80156111e55780601f106111ba576101008083540402835291602001916111e5565b820191906000526020600020905b8154815290600101906020018083116111c857829003601f168201915b5050505050908060030154905084565b6040518060c0016040528060608152602001600081526020016000815260200160008152602001600073ffffffffffffffffffffffffffffffffffffffff1681526020016000151581525090565b6040518060800160405280600073ffffffffffffffffffffffffffffffffffffffff1681526020016000815260200160608152602001600081525090565b6000604051905090565b600080fd5b600080fd5b600080fd5b600080fd5b6000601f19601f8301169050919050565b7f4e487b7100000000000000000000000000000000000000000000000000000000600052604160045260246000fd5b6112e88261129f565b810181811067ffffffffffffffff82111715611307576113066112b0565b5b80604052505050565b600061131a611281565b905061132682826112df565b919050565b600067ffffffffffffffff821115611346576113456112b0565b5b61134f8261129f565b9050602081019050919050565b82818337600083830152505050565b600061137e6113798461132b565b611310565b90508281526020810184848401111561139a5761139961129a565b5b6113a584828561135c565b509392505050565b600082601f8301126113c2576113c1611295565b5b81356113d284826020860161136b565b91505092915050565b6000602082840312156113f1576113f061128b565b5b600082013567ffffffffffffffff81111561140f5761140e611290565b5b61141b848285016113ad565b91505092915050565b600081519050919050565b600082825260208201905092915050565b60005b8381101561145e578082015181840152602081019050611443565b60008484015250505050565b600061147582611424565b61147f818561142f565b935061148f818560208601611440565b6114988161129f565b840191505092915050565b6000819050919050565b6114b6816114a3565b82525050565b600073ffffffffffffffffffffffffffffffffffffffff82169050919050565b60006114e7826114bc565b9050919050565b6114f7816114dc565b82525050565b60008115159050919050565b611512816114fd565b82525050565b600060c0830160008301518482036000860152611535828261146a565b915050602083015161154a60208601826114ad565b50604083015161155d60408601826114ad565b50606083015161157060608601826114ad565b50608083015161158360808601826114ee565b5060a083015161159660a0860182611509565b508091505092915050565b600060208201905081810360008301526115bb8184611518565b905092915050565b6115cc816114dc565b81146115d757600080fd5b50565b6000813590506115e9816115c3565b92915050565b6000602082840312156116055761160461128b565b5b6000611613848285016115da565b91505092915050565b611625816114a3565b82525050565b6000602082019050611640600083018461161c565b92915050565b61164f816114a3565b811461165a57600080fd5b50565b60008135905061166c81611646565b92915050565b60008060006060848603121561168b5761168a61128b565b5b600084013567ffffffffffffffff8111156116a9576116a8611290565b5b6116b5868287016113ad565b93505060206116c68682870161165d565b92505060406116d78682870161165d565b9150509250925092565b6116ea816114dc565b82525050565b600060208201905061170560008301846116e1565b92915050565b600080604083850312156117225761172161128b565b5b6000611730858286016115da565b92505060206117418582860161165d565b9150509250929050565b600080604083850312156117625761176161128b565b5b600083013567ffffffffffffffff8111156117805761177f611290565b5b61178c858286016113ad565b925050602061179d8582860161165d565b9150509250929050565b60006080830160008301516117bf60008601826114ee565b5060208301516117d260208601826114ad565b50604083015184820360408601526117ea828261146a565b91505060608301516117ff60608601826114ad565b508091505092915050565b6000602082019050818103600083015261182481846117a7565b905092915050565b600082825260208201905092915050565b600061184882611424565b611852818561182c565b9350611862818560208601611440565b61186b8161129f565b840191505092915050565b61187f816114fd565b82525050565b600060c082019050818103600083015261189f818961183d565b90506118ae602083018861161c565b6118bb604083018761161c565b6118c8606083018661161c565b6118d560808301856116e1565b6118e260a0830184611876565b979650505050505050565b6000806000606084860312156119065761190561128b565b5b600084013567ffffffffffffffff81111561192457611923611290565b5b611930868287016113ad565b93505060206119418682870161165d565b925050604084013567ffffffffffffffff81111561196257611961611290565b5b61196e868287016113ad565b9150509250925092565b600060208201905061198d6000830184611876565b92915050565b60006080820190506119a860008301876116e1565b6119b5602083018661161c565b81810360408301526119c7818561183d565b90506119d6606083018461161c565b95945050505050565b600081905092915050565b60006119f582611424565b6119ff81856119df565b9350611a0f818560208601611440565b80840191505092915050565b6000611a2782846119ea565b915081905092915050565b7f4e487b7100000000000000000000000000000000000000000000000000000000600052602260045260246000fd5b60006002820490506001821680611a7957607f821691505b602082108103611a8c57611a8b611a32565b5b50919050565b7f4e6f74206f776e65720000000000000000000000000000000000000000000000600082015250565b6000611ac860098361182c565b9150611ad382611a92565b602082019050919050565b60006020820190508181036000830152611af781611abb565b9050919050565b7f4e6f7420617574686f72697a65642073636f7265720000000000000000000000600082015250565b6000611b3460158361182c565b9150611b3f82611afe565b602082019050919050565b60006020820190508181036000830152611b6381611b27565b9050919050565b7f53636f726573206d757374206265203c3d203130300000000000000000000000600082015250565b6000611ba060158361182c565b9150611bab82611b6a565b602082019050919050565b60006020820190508181036000830152611bcf81611b93565b9050919050565b60008190508160005260206000209050919050565b60006020601f8301049050919050565b600082821b905092915050565b600060088302611c387fffffffffffffffffffffffffffffffffffffffffffffffffffffffffffffffff82611bfb565b611c428683611bfb565b95508019841693508086168417925050509392505050565b6000819050919050565b6000611c7f611c7a611c75846114a3565b611c5a565b6114a3565b9050919050565b6000819050919050565b611c9983611c64565b611cad611ca582611c86565b848454611c08565b825550505050565b600090565b611cc2611cb5565b611ccd818484611c90565b505050565b5b81811015611cf157611ce6600082611cba565b600181019050611cd3565b5050565b601f821115611d3657611d0781611bd6565b611d1084611beb565b81016020851015611d1f578190505b611d33611d2b85611beb565b830182611cd2565b50505b505050565b600082821c905092915050565b6000611d5960001984600802611d3b565b1980831691505092915050565b6000611d728383611d48565b9150826002028217905092915050565b611d8b82611424565b67ffffffffffffffff811115611da457611da36112b0565b5b611dae8254611a61565b611db9828285611cf5565b600060209050601f831160018114611dec5760008415611dda578287015190505b611de48582611d66565b865550611e4c565b601f198416611dfa86611bd6565b60005b82811015611e2257848901518255600182019150602085019450602081019050611dfd565b86831015611e3f5784890151611e3b601f891682611d48565b8355505b6001600288020188555050505b505050505050565b6000606082019050611e69600083018661161c565b611e76602083018561161c565b611e8360408301846116e1565b949350505050565b6000604082019050611ea060008301856116e1565b611ead602083018461161c565b9392505050565b7f496e646578206f7574206f6620626f756e647300000000000000000000000000600082015250565b6000611eea60138361182c565b9150611ef582611eb4565b602082019050919050565b60006020820190508181036000830152611f1981611edd565b9050919050565b7f4e487b7100000000000000000000000000000000000000000000000000000000600052603260045260246000fd5b7f4e6577206f776e65722063616e6e6f74206265207a65726f2061646472657373600082015250565b6000611f8560208361182c565b9150611f9082611f4f565b602082019050919050565b60006020820190508181036000830152611fb481611f78565b9050919050565b7f526174696e67206d75737420626520312d350000000000000000000000000000600082015250565b6000611ff160128361182c565b9150611ffc82611fbb565b602082019050919050565b6000602082019050818103600083015261202081611fe4565b9050919050565b7f4d696e696d756d2072657075746174696f6e2072657175697265640000000000600082015250565b600061205d601b8361182c565b915061206882612027565b602082019050919050565b6000602082019050818103600083015261208c81612050565b9050919050565b7f4e487b7100000000000000000000000000000000000000000000000000000000600052601160045260246000fd5b60006120cd826114a3565b91506120d8836114a3565b92508282019050808211156120f0576120ef612093565b5b9291505056fea26469706673582212203b681ec28f51cc9ec5a6b7f3f8d8e38093defbfaf2872d498afa8ea892bb1e1b64736f6c63430008130033",
  "linkReferences": {},
  "deployedLinkReferences": {}
}